// tshark -T text -j -P -V -x -r arp.pcap

Frame 1: 60 bytes on wire (480 bits), 60 bytes captured (480 bits)
    Encapsulation type: Ethernet (1)
    Arrival Time: Feb 27, 2011 17:16:02.806447000 UTC
    [Time shift for this packet: 0.000000000 seconds]
    Epoch Time: 1298826962.806447000 seconds
    [Time delta from previous captured frame: 0.000000000 seconds]
    [Time delta from previous displayed frame: 0.000000000 seconds]
    [Time since reference or first frame: 0.000000000 seconds]
    Frame Number: 1
    Frame Length: 60 bytes (480 bits)
    Capture Length: 60 bytes (480 bits)
    [Frame is marked: False]
    [Frame is ignored: False]
    [Protocols in frame: eth:ethertype:arp]
Ethernet II, Src: cc:01:10:dc:00:00 (cc:01:10:dc:00:00), Dst: Broadcast (ff:ff:ff:ff:ff:ff)
    Destination: Broadcast (ff:ff:ff:ff:ff:ff)
        Address: Broadcast (ff:ff:ff:ff:ff:ff)
        .... ..1. .... .... .... .... = LG bit: Locally administered address (this is NOT the factory default)
        .... ...1 .... .... .... .... = IG bit: Group address (multicast/broadcast)
    Source: cc:01:10:dc:00:00 (cc:01:10:dc:00:00)
        Address: cc:01:10:dc:00:00 (cc:01:10:dc:00:00)
        .... ..0. .... .... .... .... = LG bit: Globally unique address (factory default)
        .... ...0 .... .... .... .... = IG bit: Individual address (unicast)
    Type: ARP (0x0806)
    Padding: 000000000000000000000000000000000000
Address Resolution Protocol (request)
    Hardware type: Ethernet (1)
    Protocol type: IPv4 (0x0800)
    Hardware size: 6
    Protocol size: 4
    Opcode: request (1)
    Sender MAC address: cc:01:10:dc:00:00 (cc:01:10:dc:00:00)
    Sender IP address: 10.10.10.2
    Target MAC address: 00:00:00_00:00:00 (00:00:00:00:00:00)
    Target IP address: 10.10.10.1
0000  ff ff ff ff ff ff cc 01 10 dc 00 00 08 06 00 01   ................
0010  08 00 06 04 00 01 cc 01 10 dc 00 00 0a 0a 0a 02   ................
0020  00 00 00 00 00 00 0a 0a 0a 01 00 00 00 00 00 00   ................
0030  00 00 00 00 00 00 00 00 00 00 00 00               ............
Frame 2: 60 bytes on wire (480 bits), 60 bytes captured (480 bits)
    Encapsulation type: Ethernet (1)
    Arrival Time: Feb 27, 2011 17:16:02.837447000 UTC
    [Time shift for this packet: 0.000000000 seconds]
    Epoch Time: 1298826962.837447000 seconds
    [Time delta from previous captured frame: 0.031000000 seconds]
    [Time delta from previous displayed frame: 0.031000000 seconds]
    [Time since reference or first frame: 0.031000000 seconds]
    Frame Number: 2
    Frame Length: 60 bytes (480 bits)
    Capture Length: 60 bytes (480 bits)
    [Frame is marked: False]
    [Frame is ignored: False]
    [Protocols in frame: eth:ethertype:arp]
Ethernet II, Src: cc:00:10:dc:00:00 (cc:00:10:dc:00:00), Dst: cc:01:10:dc:00:00 (cc:01:10:dc:00:00)
    Destination: cc:01:10:dc:00:00 (cc:01:10:dc:00:00)
        Address: cc:01:10:dc:00:00 (cc:01:10:dc:00:00)
        .... ..0. .... .... .... .... = LG bit: Globally unique address (factory default)
        .... ...0 .... .... .... .... = IG bit: Individual address (unicast)
    Source: cc:00:10:dc:00:00 (cc:00:10:dc:00:00)
        Address: cc:00:10:dc:00:00 (cc:00:10:dc:00:00)
        .... ..0. .... .... .... .... = LG bit: Globally unique address (factory default)
        .... ...0 .... .... .... .... = IG bit: Individual address (unicast)
    Type: ARP (0x0806)
    Padding: 000000000000000000000000000000000000
Address Resolution Protocol (reply)
    Hardware type: Ethernet (1)
    Protocol type: IPv4 (0x0800)
    Hardware size: 6
    Protocol size: 4
    Opcode: reply (2)
    Sender MAC address: cc:00:10:dc:00:00 (cc:00:10:dc:00:00)
    Sender IP address: 10.10.10.1
    Target MAC address: cc:01:10:dc:00:00 (cc:01:10:dc:00:00)
    Target IP address: 10.10.10.2
0000  cc 01 10 dc 00 00 cc 00 10 dc 00 00 08 06 00 01   ................
0010  08 00 06 04 00 02 cc 00 10 dc 00 00 0a 0a 0a 01   ................
0020  cc 01 10 dc 00 00 0a 0a 0a 02 00 00 00 00 00 00   ................
0030  00 00 00 00 00 00 00 00 00 00 00 00               ............
