// tshark -T text -j -P -V -x -r dns.pcap

Frame 1: 74 bytes on wire (592 bits), 74 bytes captured (592 bits)
    Encapsulation type: Ethernet (1)
    Arrival Time: Mar 30, 2005 08:49:18.685951000 UTC
    [Time shift for this packet: 0.000000000 seconds]
    Epoch Time: 1112172558.685951000 seconds
    [Time delta from previous captured frame: 0.000000000 seconds]
    [Time delta from previous displayed frame: 0.000000000 seconds]
    [Time since reference or first frame: 0.000000000 seconds]
    Frame Number: 1
    Frame Length: 74 bytes (592 bits)
    Capture Length: 74 bytes (592 bits)
    [Frame is marked: False]
    [Frame is ignored: False]
    [Protocols in frame: eth:ethertype:ip:udp:dns]
Ethernet II, Src: AsustekI_b1:0c:ad (00:e0:18:b1:0c:ad), Dst: QuantaCo_32:41:8c (00:c0:9f:32:41:8c)
    Destination: QuantaCo_32:41:8c (00:c0:9f:32:41:8c)
        Address: QuantaCo_32:41:8c (00:c0:9f:32:41:8c)
        .... ..0. .... .... .... .... = LG bit: Globally unique address (factory default)
        .... ...0 .... .... .... .... = IG bit: Individual address (unicast)
    Source: AsustekI_b1:0c:ad (00:e0:18:b1:0c:ad)
        Address: AsustekI_b1:0c:ad (00:e0:18:b1:0c:ad)
        .... ..0. .... .... .... .... = LG bit: Globally unique address (factory default)
        .... ...0 .... .... .... .... = IG bit: Individual address (unicast)
    Type: IPv4 (0x0800)
Internet Protocol Version 4, Src: 192.168.170.8, Dst: 192.168.170.20
    0100 .... = Version: 4
    .... 0101 = Header Length: 20 bytes (5)
    Differentiated Services Field: 0x00 (DSCP: CS0, ECN: Not-ECT)
        0000 00.. = Differentiated Services Codepoint: Default (0)
        .... ..00 = Explicit Congestion Notification: Not ECN-Capable Transport (0)
    Total Length: 60
    Identification: 0x0000 (0)
    Flags: 0x4000, Don't fragment
        0... .... .... .... = Reserved bit: Not set
        .1.. .... .... .... = Don't fragment: Set
        ..0. .... .... .... = More fragments: Not set
    Fragment offset: 0
    Time to live: 64
    Protocol: UDP (17)
    Header checksum: 0x6543 [validation disabled]
    [Header checksum status: Unverified]
    Source: 192.168.170.8
    Destination: 192.168.170.20
User Datagram Protocol, Src Port: 32795, Dst Port: 53
    Source Port: 32795
    Destination Port: 53
    Length: 40
    Checksum: 0xaf61 [unverified]
    [Checksum Status: Unverified]
    [Stream index: 0]
    [Timestamps]
        [Time since first frame: 0.000000000 seconds]
        [Time since previous frame: 0.000000000 seconds]
Domain Name System (query)
    Transaction ID: 0x75c0
    Flags: 0x0100 Standard query
        0... .... .... .... = Response: Message is a query
        .000 0... .... .... = Opcode: Standard query (0)
        .... ..0. .... .... = Truncated: Message is not truncated
        .... ...1 .... .... = Recursion desired: Do query recursively
        .... .... .0.. .... = Z: reserved (0)
        .... .... ...0 .... = Non-authenticated data: Unacceptable
    Questions: 1
    Answer RRs: 0
    Authority RRs: 0
    Additional RRs: 0
    Queries
        www.netbsd.org: type A, class IN
            Name: www.netbsd.org
            [Name Length: 14]
            [Label Count: 3]
            Type: A (Host Address) (1)
            Class: IN (0x0001)
0000  00 c0 9f 32 41 8c 00 e0 18 b1 0c ad 08 00 45 00   ...2A.........E.
0010  00 3c 00 00 40 00 40 11 65 43 c0 a8 aa 08 c0 a8   .<..@.@.eC......
0020  aa 14 80 1b 00 35 00 28 af 61 75 c0 01 00 00 01   .....5.(.au.....
0030  00 00 00 00 00 00 03 77 77 77 06 6e 65 74 62 73   .......www.netbs
0040  64 03 6f 72 67 00 00 01 00 01                     d.org.....
Frame 2: 90 bytes on wire (720 bits), 90 bytes captured (720 bits)
    Encapsulation type: Ethernet (1)
    Arrival Time: Mar 30, 2005 08:49:18.734862000 UTC
    [Time shift for this packet: 0.000000000 seconds]
    Epoch Time: 1112172558.734862000 seconds
    [Time delta from previous captured frame: 0.048911000 seconds]
    [Time delta from previous displayed frame: 0.048911000 seconds]
    [Time since reference or first frame: 0.048911000 seconds]
    Frame Number: 2
    Frame Length: 90 bytes (720 bits)
    Capture Length: 90 bytes (720 bits)
    [Frame is marked: False]
    [Frame is ignored: False]
    [Protocols in frame: eth:ethertype:ip:udp:dns]
Ethernet II, Src: QuantaCo_32:41:8c (00:c0:9f:32:41:8c), Dst: AsustekI_b1:0c:ad (00:e0:18:b1:0c:ad)
    Destination: AsustekI_b1:0c:ad (00:e0:18:b1:0c:ad)
        Address: AsustekI_b1:0c:ad (00:e0:18:b1:0c:ad)
        .... ..0. .... .... .... .... = LG bit: Globally unique address (factory default)
        .... ...0 .... .... .... .... = IG bit: Individual address (unicast)
    Source: QuantaCo_32:41:8c (00:c0:9f:32:41:8c)
        Address: QuantaCo_32:41:8c (00:c0:9f:32:41:8c)
        .... ..0. .... .... .... .... = LG bit: Globally unique address (factory default)
        .... ...0 .... .... .... .... = IG bit: Individual address (unicast)
    Type: IPv4 (0x0800)
Internet Protocol Version 4, Src: 192.168.170.20, Dst: 192.168.170.8
    0100 .... = Version: 4
    .... 0101 = Header Length: 20 bytes (5)
    Differentiated Services Field: 0x00 (DSCP: CS0, ECN: Not-ECT)
        0000 00.. = Differentiated Services Codepoint: Default (0)
        .... ..00 = Explicit Congestion Notification: Not ECN-Capable Transport (0)
    Total Length: 76
    Identification: 0xcff9 (53241)
    Flags: 0x0000
        0... .... .... .... = Reserved bit: Not set
        .0.. .... .... .... = Don't fragment: Not set
        ..0. .... .... .... = More fragments: Not set
    Fragment offset: 0
    Time to live: 128
    Protocol: UDP (17)
    Header checksum: 0x9539 [validation disabled]
    [Header checksum status: Unverified]
    Source: 192.168.170.20
    Destination: 192.168.170.8
User Datagram Protocol, Src Port: 53, Dst Port: 32795
    Source Port: 53
    Destination Port: 32795
    Length: 56
    Checksum: 0xa317 [unverified]
    [Checksum Status: Unverified]
    [Stream index: 0]
    [Timestamps]
        [Time since first frame: 0.048911000 seconds]
        [Time since previous frame: 0.048911000 seconds]
Domain Name System (response)
    Transaction ID: 0x75c0
    Flags: 0x8180 Standard query response, No error
        1... .... .... .... = Response: Message is a response
        .000 0... .... .... = Opcode: Standard query (0)
        .... .0.. .... .... = Authoritative: Server is not an authority for domain
        .... ..0. .... .... = Truncated: Message is not truncated
        .... ...1 .... .... = Recursion desired: Do query recursively
        .... .... 1... .... = Recursion available: Server can do recursive queries
        .... .... .0.. .... = Z: reserved (0)
        .... .... ..0. .... = Answer authenticated: Answer/authority portion was not authenticated by the server
        .... .... ...0 .... = Non-authenticated data: Unacceptable
        .... .... .... 0000 = Reply code: No error (0)
    Questions: 1
    Answer RRs: 1
    Authority RRs: 0
    Additional RRs: 0
    Queries
        www.netbsd.org: type A, class IN
            Name: www.netbsd.org
            [Name Length: 14]
            [Label Count: 3]
            Type: A (Host Address) (1)
            Class: IN (0x0001)
    Answers
        www.netbsd.org: type A, class IN, addr 204.152.190.12
            Name: www.netbsd.org
            Type: A (Host Address) (1)
            Class: IN (0x0001)
            Time to live: 82159 (22 hours, 49 minutes, 19 seconds)
            Data length: 4
            Address: 204.152.190.12
    [Request In: 1]
    [Time: 0.048911000 seconds]
0000  00 e0 18 b1 0c ad 00 c0 9f 32 41 8c 08 00 45 00   .........2A...E.
0010  00 4c cf f9 00 00 80 11 95 39 c0 a8 aa 14 c0 a8   .L.......9......
0020  aa 08 00 35 80 1b 00 38 a3 17 75 c0 81 80 00 01   ...5...8..u.....
0030  00 01 00 00 00 00 03 77 77 77 06 6e 65 74 62 73   .......www.netbs
0040  64 03 6f 72 67 00 00 01 00 01 c0 0c 00 01 00 01   d.org...........
0050  00 01 40 ef 00 04 cc 98 be 0c                     ..@.......