// tshark -w arp.pcap
// tshark -T text -j -P -V -x -r arp.pcap -Y "frame.number == 1"


Frame 1: 42 bytes on wire (336 bits), 42 bytes captured (336 bits) on interface eth0, id 0
    Encapsulation type: Ethernet (1)
    Arrival Time: Dec 30, 2020 15:21:06.446167199 UTC
    [Time shift for this packet: 0.000000000 seconds]
    Epoch Time: 1609341666.446167199 seconds
    [Time delta from previous captured frame: 0.000000000 seconds]
    [Time delta from previous displayed frame: 0.000000000 seconds]
    [Time since reference or first frame: 0.000000000 seconds]
    Frame Number: 1
    Frame Length: 42 bytes (336 bits)
    Capture Length: 42 bytes (336 bits)
    [Frame is marked: False]
    [Frame is ignored: False]
    [Protocols in frame: eth:ethertype:arp]
Ethernet II, Src: 02:42:0a:06:00:06 (02:42:0a:06:00:06), Dst: Broadcast (ff:ff:ff:ff:ff:ff)
    Destination: Broadcast (ff:ff:ff:ff:ff:ff)
        Address: Broadcast (ff:ff:ff:ff:ff:ff)
        .... ..1. .... .... .... .... = LG bit: Locally administered address (this is NOT the factory default)
        .... ...1 .... .... .... .... = IG bit: Group address (multicast/broadcast)
    Source: 02:42:0a:06:00:06 (02:42:0a:06:00:06)
        Address: 02:42:0a:06:00:06 (02:42:0a:06:00:06)
        .... ..1. .... .... .... .... = LG bit: Locally administered address (this is NOT the factory default)
        .... ...0 .... .... .... .... = IG bit: Individual address (unicast)
    Type: ARP (0x0806)
Address Resolution Protocol (request)
    Hardware type: Ethernet (1)
    Protocol type: IPv4 (0x0800)
    Hardware size: 6
    Protocol size: 4
    Opcode: request (1)
    Sender MAC address: 02:42:0a:06:00:06 (02:42:0a:06:00:06)
    Sender IP address: 10.6.0.6
    Target MAC address: 00:00:00_00:00:00 (00:00:00:00:00:00)
    Target IP address: 10.6.6.53
0000  ff ff ff ff ff ff 02 42 0a 06 00 06 08 06 00 01   .......B........
0010  08 00 06 04 00 01 02 42 0a 06 00 06 0a 06 00 06   .......B........
0020  00 00 00 00 00 00 0a 06 06 35                     .........5